:100000000C94DF000C9407010C9407010C94070179
:100010000C9407010C9407010C9407010C94070140
:100020000C9407010C9407010C94520C0C944C098D
:100030000C9407010C9407010C9407010C94070120
:100040000C9407010C9407010C9407010C94070110
:100050000C9407010C9407010C9407010C94AE0B4F
:100060000C9407010C9407010C9407010C940701F0
:100070000C9407010C9407010C9407010C940701E0
:100080000C9407010C9407010C9407010C940701D0
:100090000C9407010C9407010C9407010C940701C0
:1000A0000C9407010C9407010C940701FC01FF015B
:1000B000EE01F201F60120022002200203020702F3
:1000C0000B021102150220021B0200000000250095
:1000D00028002B002E00310004040404040304054E
:1000E00002020202040302020202060606060606D5
:1000F00004040202020404040802011040804010BB
:10010000204080408008020401804020100201103D
:100110008010204040200000000200090F00000372
:100120000401000C000000000000000000000000BE
:100130000000000000080B00020202010009040098
:100140000001020200000524001001052401010144
:10015000042402060524060001070581031000405F
:1001600009040100020A0000000705020240000025
:1001700007058302400000040309044172647569A5
:100180006E6F204C4C430041726475696E6F204C59
:10019000656F6E6172646F00120100020000004022
:1001A0004123368000010102030112010002EF0227
:1001B000014041233680000101020301010D112499
:1001C0001FBECFEFDAE0DEBFCDBF11E0A0E0B1E0AF
:1001D000E2ECFBE102C005900D92A033B107D9F724
:1001E00023E0A0E3B1E001C01D92A33FB207E1F715
:1001F00010E0CFEDD0E004C02197FE010E94D40DA5
:10020000CE3DD107C9F70E94310D0C94DF0D0C943F
:1002100000004091440350914503209142033091E6
:10022000430342175307B4F49091E8009570E1F34B
:100230009091E80092FD19C08093F10080914403F1
:100240009091450301968F739927892B19F48EEFAE
:100250008093E80080914403909145030196909328
:1002600045038093440381E0089580E00895DF9280
:10027000EF92FF920F931F93CF93DF93D82E8A01B3
:100280007B01E40EF51EEB01CE15DF0571F0D7FE04
:1002900003C0FE01849101C088810E94090121965A
:1002A0008111F2CF8FEF9FEF01C0C801DF91CF9195
:1002B0001F910F91FF90EF90DF900895615030F003
:1002C0002091F100FC0120830196F8CF289884E664
:1002D00080934A030895CF92DF92EF92FF920F939B
:1002E0001F93CF93DF936C017A018B01C0E0D0E0C4
:1002F000CE15DF0589F0D8016D918D01D601ED9104
:10030000FC910190F081E02DC6010995892B11F433
:100310007E0102C02196ECCFC701DF91CF911F91E2
:100320000F91FF90EF90DF90CF900895CF93DF93E0
:100330001F92CDB7DEB76983DC01ED91FC9102809D
:10034000F381E02D41E050E0BE016F5F7F4F0995E2
:100350000F90DF91CF91089583E08093E900809121
:10036000F200882319F08AE38093E8000895FC01E5
:100370008485958597FD0BC09FB7F89482E08093A4
:10038000E9008091F2009FBF90E0019608959FB729
:10039000F89482E08093E9008091F2009FBF90E0A2
:1003A0000895362F90E0FC01EA5EFE4F4491FC0177
:1003B000E950FF4F2491FC01E852FF4F84918823BC
:1003C00009F451C04423E1F150E0FA013197EF30D4
:1003D000F105B0F5EA5AFF4F0C94D40D90918000CE
:1003E0009F7707C0909180009F7D03C0909180000F
:1003F000977F9093800024C094B59F7702C094B5F6
:100400009F7D94BD1DC0909190009F7707C09091F3
:1004100090009F7D03C090919000977F90939000F3
:100420000FC09091C0009F7703C09091C0009F7D46
:100430009093C00005C09091C200977F9093C20036
:10044000E82FF0E0EE0FFF1FE653FF4FA591B491A8
:100450008FB7F894EC91311103C020952E2301C081
:100460002E2B2C938FBF08952FB7F89460913903EA
:1004700070913A0380913B0390913C032FBF089504
:1004800061E0FC0184810E94D101809130018111E1
:100490001092300108958EBD00000DB407FEFDCF0F
:1004A0008EB508958FEF0C944B020F931F93CF934B
:1004B000DF93EB010E9434028B010E9452028F3FB6
:1004C00049F00E943402601B710B6C177D07A8F382
:1004D00080E001C081E0DF91CF911F910F910895DD
:1004E000CF93DF93EC018E81882389F08F819885EB
:1004F0009C012F5F3F4F38872F838230924018F442
:100500000E945202F3CFCE010E9440021E82DF9170
:10051000CF910895CF92DF92FF920F931F93CF93C5
:10052000DF9300D000D0CDB7DEB76C01F62E298363
:100530003A834B835C830E94700280913001298151
:100540003A814B815C81811109C081E08093300147
:1005500090914C0380914D039CBD8DBD60E0F601F0
:10056000848129833A834B835C830E94D1016CE2AE
:1005700071E0C6010E9455028F2D80640E944B02DB
:1005800008E110E05C814B813A812981DA01C901DF
:10059000002E04C0B695A795979587950A94D2F733
:1005A00029833A834B835C830E944B0208501109D4
:1005B00029813A814B815C81083FFFEF1F0731F7AA
:1005C000FF2029F088E0F81204C087E803C085E91D
:1005D00001C08FEF0E944B0210E00E945202F60110
:1005E000828787FF04C01F3F11F01F5FF6CF0F9077
:1005F0000F900F900F90DF91CF911F910F91FF906F
:10060000DF90CF900895EF92FF920F931F93CF93B7
:10061000DF93EC017901411551056105710511F474
:1006200082E13CC08B85833039F089E0440F551F4F
:10063000661F771F8A95D1F79A01AB0168E1CE0159
:100640000E948A02882311F084E028C08EEF0E9465
:100650004B0287018EEFF81AF80181918F010E94F9
:100660004B020E151F05C1F78FEF0E944B028FEF53
:100670000E944B020E9452028A878F71853031F0AE
:1006800081E18D83CE010E94400209C068E572E0DD
:10069000CE010E945502811107C085E18D83CE01F4
:1006A0000E94400280E013C020E030E0A9016DE02C
:1006B000CE010E948A02811104C00E945202882346
:1006C00011F084E1EBCFCE010E94400281E0DF9186
:1006D000CF911F910F91FF90EF900895CF93DF93EB
:1006E00080913301882399F1C0913101D091320179
:1006F000409100015091010160910201709103014C
:1007000028E331E0CE010E940303811102C080E0A2
:100710001FC04091340150913501609136017091B4
:100720003701411551056105710579F028E331E084
:10073000CE010E940303882351F3109234011092DA
:10074000350110923601109237011092330181E089
:10075000DF91CF910895BF92CF92DF92EF92FF92F7
:100760000F931F93CF93DF936B017C01B42E809185
:10077000000190910101A0910201B09103018C153B
:100780009D05AE05BF0509F476C00E946E0388235F
:1007900009F478C0C0913101D09132018E81882353
:1007A00069F088819981AA81BB81C816D906EA06B9
:1007B000FB0621F48F819885892BB1F1C882D982FB
:1007C000EA82FB828B85A7019601833039F089E0AC
:1007D000220F331F441F551F8A95D1F761E1CE01C7
:1007E0000E948A02882319F083E08D8337C00E941B
:1007F00034028B010E9452028A878F3F49F40E9483
:100800003402601B710B6D327140A0F38FE003C0A6
:100810008E3F31F08DE08D83CE010E9440021EC0DC
:1008200018861F8281E08E8308E311E00E94520245
:10083000F80181938F01F3E008331F07B9F78F8127
:1008400098859E5F98878F832985222319F08115CB
:10085000924048F0CE010E94700205C0CE010E9475
:10086000400280E00FC0C0920001D0920101E092EE
:100870000201F092030180913301482F4B294093EC
:10088000330181E0DF91CF911F910F91FF90EF90A5
:10089000DF90CF90BF9008954F925F926F927F92BA
:1008A0008F929F92AF92BF92CF92DF92EF92FF9280
:1008B0000F931F93CF93DF93EC016A017B01280113
:1008C0003901423051056105710510F480E073C0B3
:1008D00089859A85AB85BC850196A11DB11D8417BC
:1008E0009507A607B70790F38B889C88AD88BE88CC
:1008F0008F89803129F4BB27AF2D9E2D8D2D09C006
:10090000DB01CA0147E0B695A795979587954A956B
:10091000D1F7880E991EAA1EBB1E809100019091EE
:100920000101A0910201B091030188169906AA065F
:10093000BB0679F48F898031A1F4DD24EE24FF24F5
:10094000C601880F991FFC01E85CFE4F518240826E
:1009500019C040E0C501B4010E94AB038111EACF88
:10096000B5CFE894C7F8DD24EE24FF24C601880F34
:10097000991F880F991FFC01E85CFE4F408251824D
:1009800062827382809133018160809333018A890E
:10099000823080F08D819E81AF81B885880E991E4E
:1009A000AA1EBB1E8092340190923501A09236019E
:1009B000B092370181E0DF91CF911F910F91FF90AD
:1009C000EF90DF90CF90BF90AF909F908F907F90EF
:1009D0006F905F904F9008958F929F92AF92BF92C9
:1009E000CF92DF92EF92FF920F931F93CF93DF93FB
:1009F000FC0181859285A385B4850196A11DB11D59
:100A000084179507A607B70710F480E05CC08389B8
:100A10009489A589B689C789C03129F4852E962E77
:100A2000A72EBB2409C04A015B01C7E0B694A79476
:100A300097948794CA95D1F7E9016A017B018F01E8
:100A4000BC01CD01680D791D8A1D9B1D80900001A0
:100A500090900101A0900201B09003016815790502
:100A60008A059B0599F4F80187898031A9F4B701BB
:100A7000A601552766277727440F551FFA01E85C22
:100A8000FE4F80819181A0E0B0E018C040E00E945C
:100A9000AB038111E8CFB9CFB701A6014F77552736
:100AA00066277727440F551F440F551FFA01E85C4E
:100AB000FE4F80819181A281B381BF708883998329
:100AC000AA83BB8381E0DF91CF911F910F91FF90AB
:100AD000EF90DF90CF90BF90AF909F908F90089550
:100AE0003F924F925F926F927F928F929F92AF92BE
:100AF000BF92CF92DF92EF92FF920F931F93CF930B
:100B0000DF93CDB7DEB72C970FB6F894DEBF0FBEDC
:100B1000CDBF5C01DC015B968D909C905C97169636
:100B2000CD90DD90ED90FC901997C114D104E104B3
:100B3000F10439F0BFEFCB1ADB0AEB0AFB0A312CC8
:100B400007C0F401C080D180E280F3803324339465
:100B5000F40181859285A385B4859C01AD012F5F49
:100B60003F4F4F4F5F4F29873A874B875C8726015E
:100B700037011D821E821F821886F40181859285AD
:100B8000A385B4852D813E814F815885281739076B
:100B90004A075B0708F063C089859A85AB85BC85E9
:100BA0008C159D05AE05BF0550F482E0C82ED12CF2
:100BB000E12CF12C92E0492E512C612C712C9E01DC
:100BC0002F5F3F4FB701A601C4010E94EC048823A8
:100BD00009F445C089819A81AB81BC81892B8A2B1C
:100BE0008B2B41F0260137019FEF491A590A690AF8
:100BF000790A05C0C414D504E604F70491F02D81E8
:100C00003E814F8158852F5F3F4F4F4F5F4F2D8360
:100C10003E834F8358873FEFC31AD30AE30AF30A90
:100C2000ACCF0FEF1FEF2FEF3FE0B301A201C401E4
:100C30000E944C04882399F0D50116964D915D9140
:100C40006D917C911997411551056105710549F028
:100C500093018201C4010E944C04811102C080E012
:100C60002AC0D50116964D925D926D927C9219978D
:100C7000332051F0D301C2010196A11DB11DF40131
:100C800080839183A283B383F5018789908DA18DA1
:100C9000B28D892B8A2B8B2B69F4D50157964D92F7
:100CA0005D926D927C925A9714968C9114978068FD
:100CB00014968C9381E02C960FB6F894DEBF0FBE8D
:100CC000CDBFDF91CF911F910F91FF90EF90DF90FB
:100CD000CF90BF90AF909F908F907F906F905F90DC
:100CE0004F903F9008954F925F926F927F928F92B4
:100CF0009F92AF92BF92EF92FF920F931F93CF9369
:100D0000DF9300D000D01F92CDB7DEB78C016D838A
:100D1000DC0115968C911597813009F057C0149617
:100D20008C9181FF53C05AC0038CF48DE02D258532
:100D300030E0275F3F4F2A013B01B1E04B1A5108D9
:100D400061087108022E04C0769467945794479402
:100D50000A94D2F7D501C4010197A109B10904C0D1
:100D6000B695A795979587952A95D2F784159505F9
:100D7000A605B70508F070C0F8014789508D618D50
:100D8000728D46835783608771872C013D017801FE
:100D9000E6E0EE0EF11CD801411451046104710427
:100DA00009F464C016964D915D916D917C911997EF
:100DB00097015B968D919C915C970E94EC04B1E049
:100DC0004B1A5108610871088111E5CF81E090E06C
:100DD000F8019383828380E090E04FC182FF0EC0D0
:100DE000F801428553856485758583889488A58834
:100DF000B688481559056A057B05F1F4D8011A969D
:100E00004D915D916D917C911D975B968D919C911B
:100E10005C97FC0174807A944A015B0129E0B694E6
:100E2000A794979487942A95D1F778207A01F1E0D6
:100E3000FF22772011F164C081149104A104B10450
:100E400009F072CF1682178210861186F801128679
:100E5000138614861586D2CF452B462B472B09F4D3
:100E60008BCF84199509A609B7098FCF1A968D9251
:100E70009D92AD92BC921D97C1CFE114F10409F08F
:100E80003FC0F80146815781608571854115510544
:100E90006105710549F48789908DA18DB28D009708
:100EA000A105B10541F521C09E012F5F3F4F0E9472
:100EB000EC04882309F48FCF89819A81AB81BC81AE
:100EC000F801238D348DF9012789203129F048EF6D
:100ED0005FEF6FEF7FE004C048EF5FEF60E070E02E
:100EE00084179507A607B70730F0C8010E94700560
:100EF000811106C06BCFF80186839783A087B187E5
:100F0000D8015B96ED91FC915C9716968D909D9023
:100F1000AD90BC901997B2E08B1A9108A108B10866
:100F2000058404C0880C991CAA1CBB1C0A94D2F727
:100F300086859785A089B189880E991EAA1EBB1E39
:100F4000870C911CA11CB11CE114F10409F5F801F6
:100F5000428553856485758583899489A589B68979
:100F6000481759076A077B0798F00E946E03882389
:100F700009F42CCF8092000190920101A09202010D
:100F8000B09203018091330181608093330108C0E6
:100F900041E0C501B4010E94AB03882309F416CFD8
:100FA000F701E85CFE4F8D818083F801828593858F
:100FB000A485B5850196A11DB11D82879387A4875D
:100FC000B5874389548965897689481759076A071F
:100FD0007B0738F4838B948BA58BB68B84818068D8
:100FE0008483D80114968C9183FD03C081E090E046
:100FF00044C0F8019581992309F4E8CE87FF38C0F1
:10100000668577858089918941E00E94AB038823BA
:1010100009F4DCCED8015296EC91B0E2EB9F90013E
:101020001124D901A85CBE4F109709F4CFCEF80166
:101030008581823050F443895489658976895C962C
:101040004D935D936D937C935F97F8018789908DA5
:10105000A18DB28DF901E85CFE4F938F828FB58B25
:10106000A48BD80114968C9114978F7714968C9337
:101070000E946E038111BACFA9CE0F900F900F90EE
:101080000F900F90DF91CF911F910F91FF90EF90F4
:10109000BF90AF909F908F907F906F905F904F9098
:1010A00008950F931F93CF93DF931F92CDB7DEB7B1
:1010B00082E0898342E450E065E371E080E80E94C9
:1010C00037010E943E0CDC0112960D911C91139782
:1010D0000115110569F0D801ED91FC910280F381B1
:1010E000E02DBE016F5F7F4FC801099597FF07C0D4
:1010F00089810F90DF91CF911F910F910895F80191
:1011000000851185E5CF8F929F92AF92BF92CF92CB
:10111000DF92EF92FF920F931F93CF93DF935C01C7
:101120006B018A0180910F01882309F459C08091D5
:101130004B03882309F454C08091480380FF05C005
:101140008091E00082608093E000E8018AEFF82E51
:1011500093E0E92E2FE3822E3AE3932E2097C9F1F4
:101160008FB7F894E092E9009091E80095FF06C0EF
:101170009091F200282D291B922F01C090E08FBF83
:10118000911106C0FA94FF2059F10E94FA0BE6CFA4
:10119000292F30E0C217D3070CF49C2F8FB7F89497
:1011A000E092E9002091E80025FF11C0292F30E0EE
:1011B000C21BD30BF601915020F041914093F100F6
:1011C000FACFC20ED31E9091E80095FF13C08FBFD7
:1011D000C5CF5D9884E6809346031016110644F04F
:1011E00081E090E0F5019383828380E090E005C088
:1011F000C80103C09092E800EACFDF91CF911F9120
:101200000F91FF90EF90DF90CF90BF90AF909F90A5
:101210008F9008950F931F93CF93DF931F92CDB7B5
:10122000DEB78C01FC018485958597FF0EC0CE0149
:1012300001960E94140C019719F4298130E002C034
:101240002FEF3FEFF80135872487F80184859585D6
:101250000F90DF91CF911F910F910895CF93DF935E
:101260001F92CDB7DEB7FC018485958597FD05C03B
:101270002FEF3FEF358724870BC0CE0101960E94E8
:10128000140C019719F4898190E002C08FEF9FEF51
:101290000F90DF91CF9108951F920F920FB60F928A
:1012A0001124CF92DF92EF92FF920F931F932F930F
:1012B0003F934F935F936F937F938F939F93AF93DE
:1012C000BF93EF93FF93CF93DF93CDB7DEB76C97C8
:1012D000DEBFCDBF1092E9008091E80083FFFAC124
:1012E00068E0CE0145960E945E0182EF8093E8009F
:1012F0008D8987FF05C09091E80090FFFCCF03C067
:101300009EEF9093E800982F907609F0C6C09E89D2
:101310002F89188D91110CC0803829F480914903D0
:101320008093F10002C01092F1001092F10047C1C9
:10133000422F50E0512B913051F4811140C1413086
:10134000510509F03CC1809149038D7F0BC093305A
:1013500061F4811134C14130510509F030C18091EF
:1013600049038260809349032AC1953041F48091FA
:10137000E80080FFFCCF20682093E30020C1963076
:1013800009F05FC0EB8CFC8C1092E90010924503D1
:1013900010924403123091F51092430310924203CD
:1013A0000E94510899E0BE016F5F7F4FDB01E92F7A
:1013B0001D92EA95E9F799831A8391E09E8390EA5A
:1013C00098879AEF99872091440330914503275FCE
:1013D0003F4F3C832B838D831092E900109245038D
:1013E00010924403F0924303E092420349E050E03C
:1013F00080E00E9437010E945108E1C0F09243034F
:10140000E09242030E943E0CDC011296ED90FC90AB
:101410001397E114F10409F4C0C0D701ED91FC91D8
:101420000480F581E02DBE016B5E7F4FC7010995F9
:10143000009719F00CF0C3C0C6C0F701E084F18436
:10144000E8CF973009F4BFC0983021F481E0809351
:10145000F100B5C0993009F0B2C0837009F0B3C093
:10146000E1E1F1E081E021E036E39081992361F050
:101470008093E9002093EB0091919093EC003093DE
:10148000ED008F5F873089F78EE78093EA00109236
:10149000EA008F8980934B0392C08B8D9C8D1092B4
:1014A000E900109245031092440390934303809304
:1014B0004203898D811156C08E899D89913A59F4D4
:1014C000813209F080C047E050E068E071E080E0E0
:1014D0000E94370174C0913209F075C0833289F4DB
:1014E000888D90E0982F88272F89822BA0E0B0E08C
:1014F0008093040190930501A0930601B093070126
:101500005EC0803269F48091E80082FFFCCF67E022
:1015100088E091E00E945E018BEF8093E80006C0B6
:10152000823209F04CC08F8980930F01809147036C
:10153000882319F0EEEFFAE002C0E0E0F8E08091D5
:10154000080190910901A0910A01B0910B01803B23
:101550009440A105B10509F088C080910F0180FF7A
:10156000A0C083C00E943E0CDC0112960D911C911C
:1015700013970115110539F1D801ED91FC910190F6
:10158000F081E02DBE016B5E7F4FC801099581118E
:1015900016C0F80100851185ECCF1130C1F0133071
:1015A00091F48F89882309F455C08230E9F440E82A
:1015B00060E187E891E00E94C40C882321F08EEF5F
:1015C0008093E80087C081E28093EB0083C08B8D1D
:1015D0009C8D089711F41093410380914103811170
:1015E00036C068E971E038C0813029F440E86BE02A
:1015F0008BE791E0E0CF833031F70E943E0CDC01B5
:101600001296ED90FC9013978E010F5F1F4F6801AB
:10161000E114F10479F0D701ED91FC910680F78196
:10162000E02DB801C7010995080F111DF701E084ED
:10163000F184EECFD8011C92F60101900020E9F769
:101640003197BF016C197D0940E0C601B4CF6AEA49
:1016500071E002C067E771E06115710509F4B3CF6D
:10166000FB01449150E080E833CF0FB6F894A89581
:1016700080916000886180936000109260000FBECE
:10168000A895EE3F2AE0F20739F08091FE0A90918A
:10169000FF0A9183808393CF1092FF0A1092FE0A73
:1016A0008ECFEE3F8AE0F80731F0808191819093F0
:1016B000FF0A8093FE0A87E797E7918380839BE088
:1016C00088E10FB6F894A895809360000FBE9093C0
:1016D000600075CF6C960FB6F894DEBF0FBECDBF1D
:1016E000DF91CF91FF91EF91BF91AF919F918F913A
:1016F0007F916F915F914F913F912F911F910F912A
:10170000FF90EF90DF90CF900F900FBE0F901F9043
:1017100018953FB7F89480913D0390913E03A091B6
:101720003F03B091400326B5A89B05C02F3F19F099
:101730000196A11DB11D3FBFBA2FA92F982F882751
:10174000820F911DA11DB11DBC01CD0142E0660FAC
:10175000771F881F991F4A95D1F708951F920F92FE
:101760000FB60F9211242F933F938F939F93AF93B4
:10177000BF938091390390913A03A0913B03B091BC
:101780003C033091380323E0230F2D3720F40196DA
:10179000A11DB11D05C026E8230F0296A11DB11D94
:1017A000209338038093390390933A03A0933B032B
:1017B000B0933C0380913D0390913E03A0913F0381
:1017C000B09140030196A11DB11D80933D039093FC
:1017D0003E03A0933F03B0934003BF91AF919F910D
:1017E0008F913F912F910F900FBE0F901F901895E2
:1017F0000E94DA0DCF92DF92EF92FF920E94890B46
:101800006B017C010E94890BDC01CB018C199D09C5
:10181000AE09BF09883E9340A105B10598F3FF903A
:10182000EF90DF90CF900895FC0180914B038111E0
:1018300003C08FEF9FEF08959FB7F89482E08093E5
:10184000E9002091F20030E01216130614F421E0B2
:1018500030E02115310559F0289884E680934A0339
:101860008091F10080838091F200882319F09FBF5E
:10187000C90108958BE68093E800F9CF8091520367
:1018800081110DC082E080934E0384E080934F036A
:10189000109251031092500381E0809352038EE422
:1018A00093E008951F920F920FB60F9211248F9319
:1018B0009F938091E1009091E100937F9093E100EC
:1018C00083FF0FC01092E90091E09093EB0010921B
:1018D000EC0092E39093ED0010924B0398E090930C
:1018E000F00082FF20C093E09093E9009091F20015
:1018F000992319F09AE39093E80090914603992375
:1019000039F090914603915090934603992389F1C1
:1019100090914A03992339F090914A039150909302
:101920004A03992341F184FF10C08091E2008E7E2A
:1019300081608093E2008091E1008F7E8093E100DE
:10194000809148038E7E806111C080FF16C0809117
:10195000E2008E7E80618093E2008091E1008E7EC5
:101960008093E100809148038E7E816080934803DC
:1019700004C05D9ACDCF289AD6CF9F918F910F90BA
:101980000FBE0F901F901895CF92DF92EF92FF92AB
:101990000F931F93CF93DF931F92CDB7DEB7182F0E
:1019A000062FE42E862F880F8E5F99830E940901EF
:1019B00083E00E940901F12EC12E9981D92E8C2D30
:1019C0008F19801798F4F601E7FE02C0849101C0D8
:1019D00080810E940901182F80E00E940901812363
:1019E000FFEFCF1ADF0A8111EACF01C081E00F902B
:1019F000DF91CF911F910F91FF90EF90DF90CF90EB
:101A00000895EAE5F3E01382128288EE93E0A0E005
:101A1000B0E084839583A683B7838BE191E09183C3
:101A200080838FEF9FEF95878487ECE4F3E080E578
:101A300080831182EAEAF3E015821682118613860A
:101A400082E090E0A0E0B0E084879587A687B78722
:101A500013A215A614A68BE291E093A782A717A65E
:101A60000895789484B5826084BD84B5816084BD16
:101A700085B5826085BD85B5816085BD80916E002C
:101A8000816080936E00109281008091810082605D
:101A9000809381008091810081608093810080919A
:101AA00080008160809380008091910082608093AB
:101AB00091008091910081608093910080919000CD
:101AC0008160809390008091C10084608093C10008
:101AD0008091C10082608093C1008091C1008160CB
:101AE0008093C1008091C30081608093C300809186
:101AF000C00082608093C0008091C20081608093AA
:101B0000C20080917A00846080937A0080917A008C
:101B1000826080937A0080917A00816080937A005D
:101B200080917A00806880937A0010924B03109223
:101B30004903109248038091D70081608093D700B9
:101B400080EA8093D80089B5806189BD89B58260BB
:101B500089BD09B400FEFDCF0E94FA0B8091D80028
:101B60008F7C80618093D8008091E000807F80939B
:101B7000E0008091E1008E7E8093E1008DE0809313
:101B8000E200559A209AEEEFFFE7859194918B3F02
:101B90009C4D19F481E080934703C0E0D0E020978A
:101BA000F1F30E940000FBCFEE0FFF1F0590F491B0
:101BB000E02D099481E090E0F8940C94DF0DF89406
:021BC000FFCF55
:101BC200FFFFFFFFFFFFFFFF00E10000000000003A
:101BD20000C180810000000000000096018308B768
:101BE200012E090A09AC010000000073066B010016
:00000001FF
